:100000000C946E000C9414050C94ED040C94960062
:100010000C9496000C9496000C9496000C94C903D2
:100020000C9496000C9496000C9496000C949600F8
:100030000C9496000C9496000C9496000C949600E8
:100040000C94A3040C9496000C9471040C944B042F
:100050000C9496000C9496000C9496000C949600C8
:100060000C9496000C9496000000000023002600DB
:10007000290000000000240027002A0000000008DA
:10008000000201000003040700000000000000005F
:10009000456E636861726361646F00556D69646F7A
:1000A000005365636F0001020408102040800102C4
:1000B00004081020010204081020000000002500A0
:1000C00028002B00040404040404040402020202B5
:1000D000020203030303030302003B0511241FBEB6
:1000E000CFEFD8E0DEBFCDBF24E0A4E5B3E001C090
:1000F0001D92AA34B207E1F713E0A0E0B1E0E4E01A
:10010000F8E102C005900D92A435B107D9F710E0CF
:10011000CEE6D0E004C02197FE010E940F0ACD3642
:10012000D107C9F70E9491050C94000C0C940000B3
:1001300081E080935D0308950895AF92BF92CF92BE
:10014000DF92EF92FF920F931F93CF93DF936C0197
:100150007B018B01040F151FEB015E01AE18BF0878
:10016000C017D10759F06991D601ED91FC9101902A
:10017000F081E02DC6010995892B79F7C501DF9142
:10018000CF911F910F91FF90EF90DF90CF90BF9094
:10019000AF900895FC01538D448D252F30E0842FBE
:1001A00090E0821B930B541710F0CF96089501979F
:1001B0000895FC01918D828D981761F0A28DAE0F8C
:1001C000BF2FB11D5D968C91928D9F5F9F73928F13
:1001D00090E008958FEF9FEF0895FC01918D828D3F
:1001E000981731F0828DE80FF11D858D90E008950C
:1001F0008FEF9FEF0895FC01918D228D892F90E064
:10020000805C9F4F821B91098F739927089581E726
:1002100093E00E94FB0021E0892B09F420E0822F6B
:10022000089580E090E0892B29F00E940701811158
:100230000C9400000895FC01A48DA80FB92FB11DE6
:10024000A35ABF4F2C91848D90E001968F7399270C
:10025000848FA689B7892C93A089B1898C918370EA
:1002600080648C93938D848D981306C00288F389E3
:10027000E02D80818F7D80830895EF92FF920F9310
:100280001F93CF93DF93EC0181E0888F9B8D8C8D42
:1002900098131AC0E889F989808185FF15C09FB736
:1002A000F894EE89FF896083E889F98980818370F9
:1002B000806480839FBF81E090E0DF91CF911F91A8
:1002C0000F91FF90EF900895F62E0B8D10E00F5FC9
:1002D0001F4F0F731127E02E8C8D8E110CC00FB69F
:1002E00007FCFACFE889F989808185FFF5CFCE0137
:1002F0000E941B01F1CFEB8DEC0FFD2FF11DE35A96
:10030000FF4FF0829FB7F8940B8FEA89FB898081B9
:100310008062CFCFCF93DF93EC01888D8823B9F033
:10032000AA89BB89E889F9898C9185FD03C0808100
:1003300086FD0DC00FB607FCF7CF8C9185FFF2CF7D
:10034000808185FFEDCFCE010E941B01E9CFDF91B7
:10035000CF910895833081F028F4813099F0823074
:10036000A9F008958730A9F08830C9F08430B1F43D
:10037000809180008F7D03C0809180008F77809373
:100380008000089584B58F7784BD089584B58F7DEE
:10039000FBCF8091B0008F778093B000089580915B
:1003A000B0008F7DF9CF1F93CF93DF93282F30E0DC
:1003B000F901E458FF4F8491F901EA55FF4FD491B8
:1003C000F901EC53FF4FC491CC23A9F0162F8111F2
:1003D0000E94AA01EC2FF0E0EE0FFF1FE654FF4F42
:1003E000A591B4918FB7F894EC91111108C0D095F4
:1003F000DE23DC938FBFDF91CF911F910895DE2B19
:10040000F8CFCF93DF9390E0FC01EA55FF4F2491A2
:100410008C539F4FFC0184918823D1F090E0880F8A
:10042000991FFC01EE58FF4FA591B491FC01E654D1
:10043000FF4FC591D49161110EC09FB7F8948C9174
:10044000E22FE0958E238C932881E223E8839FBFDF
:10045000DF91CF9108958FB7F894EC91E22BEC9354
:100460008FBFF6CF3FB7F8948091590390915A030C
:10047000A0915B03B0915C0326B5A89B05C02F3FFC
:1004800019F00196A11DB11D3FBFBA2FA92F982FBA
:100490008827BC01CD01620F711D811D911D42E0B5
:1004A000660F771F881F991F4A95D1F708958F927D
:1004B0009F92AF92BF92CF92DF92EF92FF926B0129
:1004C0007C010E9432024B015C01C114D104E104A1
:1004D000F104B9F00E943202681979098A099B096E
:1004E000683E73408105910580F321E0C21AD1086E
:1004F000E108F10888EE880E83E0981EA11CB11C6B
:10050000E4CFFF90EF90DF90CF90BF90AF909F909F
:100510008F9008952FB7F89460915503709156030A
:1005200080915703909158032FBF08950F931F9305
:10053000CF93DF93EC0110925D038B819C81019737
:1005400061F461E089810E94D3016F817885072E73
:10055000000C880B990B0E945702288130E0F901AA
:10056000E458FF4F8491F901EA55FF4F0491F901D6
:10057000EC53FF4F1491112379F081110E94AA01CD
:10058000E12FF0E0EE0FFF1FE859FF4FA591B49166
:10059000EC910E2381E009F480E081709A81981734
:1005A00019F091E090935D038A838B819C81019780
:1005B00021F460E089810E94D3018A81DF91CF918B
:1005C0001F910F910895FC0101900020E9F73197E8
:1005D000AF01481B590BBC0181E793E00C949D00CF
:1005E0008F929F92AF92BF920F931F93CF93DF93FF
:1005F000CDB7DEB7A1970FB6F894DEBF0FBECDBF63
:1006000019A2423008F44AE08E010F5D1F4F842E7C
:10061000912CB12CA12CA50194010E94D909E62F9F
:10062000B901CA01EA30F4F4E05DD801EE938D011E
:10063000232B242B252B79F790E080E0109719F0DD
:10064000CD010E94E302A1960FB6F894DEBF0FBE63
:10065000CDBFDF91CF911F910F91BF90AF909F9031
:100660008F900895E95CE1CFCF92DF92EF92FF92F5
:10067000CF93DF936B017C016DE281E793E00E94F1
:100680003D01EC0166277727CB016C197D098E09A6
:100690009F094AE00E94F0028C0F9D1FDF91CF91CD
:1006A000FF90EF90DF90CF9008950C94E302CF93EA
:1006B000DF930E94E302EC018DE191E00E94E302EE
:1006C0008C0F9D1FDF91CF910895CF93DF93BC01D5
:1006D000990F880B990B97FF0CC00E943403EC0113
:1006E0008DE191E00E94E3028C0F9D1FDF91CF917D
:1006F00008954AE00E94F002F2CFBC01990F880BE6
:10070000990B97FD0C9434034AE00C94F002EF929D
:10071000FF920F931F93CF93DF93EC017B01CB01EB
:100720000E9485098C0188819981009729F02A818E
:100730003B812017310788F4B8016F5F7F4F0E941B
:100740003A0B009791F0998388831B830A832C814D
:100750003D81232B11F4FC0110821D830C83B70112
:10076000888199810E947E090CC0888199810097B7
:1007700011F00E94B10A198218821D821C821B820C
:100780001A82CE01DF91CF911F910F91FF90EF90D0
:1007900008951F920F920FB60F9211242F933F933B
:1007A0004F935F936F937F938F939F93AF93BF9379
:1007B000EF93FF938091630390916403A09165038D
:1007C000B0916603892B8A2B8B2BD1F190915E031C
:1007D000E0915F03F091600380818927808380919D
:1007E000630390916403A0916503B09166031816AA
:1007F00019061A061B069CF480916303909164030A
:10080000A0916503B09166030197A109B109809396
:10081000630390936403A0936503B0936603FF9111
:10082000EF91BF91AF919F918F917F916F915F9168
:100830004F913F912F910F900FBE0F901F901895E1
:1008400080910401E8EDF0E0E4919FEF90930401C2
:10085000E13051F030F0E23069F060E00E94D30105
:10086000DECF10926E00F9CF90916F009D7F909334
:100870006F00F3CF909170009D7F9093700091E096
:100880009093B0009091B100987F94609093B100E4
:100890001092B300E2CF1F920F920FB60F92112465
:1008A0002F933F934F935F936F937F938F939F9378
:1008B000AF93BF93EF93FF9381E793E00E941B01F7
:1008C000FF91EF91BF91AF919F918F917F916F9128
:1008D0005F914F913F912F910F900FBE0F901F90FE
:1008E00018951F920F920FB60F9211242F938F938A
:1008F0009F93EF93FF93E0918103F09182038081B6
:10090000E0918703F091880382FD1BC09081809164
:100910008A038F5F8F7320918B03821741F0E091E0
:100920008A03F0E0EF58FC4F958F80938A03FF9184
:10093000EF919F918F912F910F900FBE0F901F906D
:1009400018958081F4CF1F920F920FB60F92112449
:100950002F933F938F939F93AF93BF9380915503B2
:1009600090915603A0915703B091580330915403CE
:1009700023E0230F2D3758F50196A11DB11D2093BB
:1009800054038093550390935603A0935703B09359
:1009900058038091590390915A03A0915B03B09141
:1009A0005C030196A11DB11D8093590390935A03D6
:1009B000A0935B03B0935C03BF91AF919F918F9124
:1009C0003F912F910F900FBE0F901F90189526E822
:1009D000230F0296A11DB11DD2CF1F920F920FB609
:1009E0000F9211242F933F934F935F936F937F93B5
:1009F0008F939F93AF93BF93EF93FF93E091020187
:100A0000F09103010995FF91EF91BF91AF919F91F3
:100A10008F917F916F915F914F913F912F910F90A7
:100A20000FBE0F901F9018951F920F920FB60F9246
:100A300011242F933F934F935F936F937F938F93E3
:100A40009F93AF93BF93EF93FF93E0910001F091D9
:100A500001010995FF91EF91BF91AF919F918F9106
:100A60007F916F915F914F913F912F910F900FBEAA
:100A70000F901F901895E1E7F3E01382128288EE41
:100A800093E0A0E0B0E084839583A683B7838FE0F2
:100A900091E09183808385EC90E09587848784EC56
:100AA00090E09787868780EC90E0918B808B81EC3B
:100AB00090E0938B828B82EC90E0958B848B86EC1C
:100AC00090E0978B868B118E128E138E148EEEE330
:100AD000F4E021E030E03583248388EB9BE09783CA
:100AE0008683E4E3F4E012823483238342E050E01F
:100AF0005683458390878783E9E2F4E0A0E7B7E176
:100B0000B283A18361E06187EEE0F4E0B283A18368
:100B10006187158637872687518B408B938B828B15
:100B20000895CF93DF93CDB7DEB728970FB6F8942B
:100B3000DEBF0FBECDBF789484B5826084BD84B51E
:100B4000816084BD85B5826085BD85B5816085BDC8
:100B500080916E00816080936E0010928100809180
:100B60008100826080938100809181008160809308
:100B70008100809180008160809380008091B1002D
:100B800084608093B1008091B00081608093B00058
:100B900080917A00846080937A0080917A008260EC
:100BA00080937A0080917A00816080937A008091AE
:100BB0007A00806880937A001092C1008EE0809362
:100BC0003E0481E090E090934304809342048AE0E5
:100BD00080933F0460E08EE00E9401028091420415
:100BE00090914304019761F480913F04803241F079
:100BF00061E00E94010260E080913F040E94D30105
:100C000083E08093340481E090E0909338048093F3
:100C100037048DE08093350460E083E00E94010298
:100C20008091370490913804019761F480913504E4
:100C3000803241F061E00E94010260E08091350461
:100C40000E94D3018CE08093290461E00E9401029C
:100C500060E0809129040E94D30184E394E09093A2
:100C600031048093300424E62093230490932604D7
:100C70008093250489E294E09093280480932704CC
:100C800061E085E00E940102E0918103F09182031E
:100C900082E08083E0917D03F0917E031082E091F9
:100CA0007F03F09180038FEC808310928903E091A1
:100CB0008503F091860386E08083E0918303F091C1
:100CC0008403808180618083E0918303F0918403B9
:100CD000808188608083E0918303F0918403808128
:100CE00080688083E0918303F091840380818F7D0D
:100CF000808380E291E00E9455035EE2452E512CF4
:100D0000612C712C22242394312C80E591E00E94E7
:100D100057038091420490914304019779F461E074
:100D200080913F040E94D301609144047091450476
:100D3000072E000C880B990B0E94570280913E04ED
:100D40008E3008F08E508770806480937C00809194
:100D50007A00806480937A0080917A0086FDFCCFCF
:100D6000909178008091790089279827892790931E
:100D70004104809340048091420490914304019780
:100D800029F460E080913F040E94D30180914004E7
:100D9000909141049093700380936F038CE691E0EF
:100DA0000E94550380914004909141041A82198257
:100DB0001C821B821E821D8261EA70E0813223E068
:100DC00092073CF46BE970E08139914014F460E9DA
:100DD00070E0CE0101960E9487034D815E8169819A
:100DE0007A8181E793E00E949D0089819A81009732
:100DF00011F00E94B10A85E891E00E9455038091AC
:100E00006F03909170030E9465038091400490915C
:100E10004104813293400CF475C189E891E00E944D
:100E2000570385EA91E00E94550384E394E00E9411
:100E30009602882309F4FFC010923A0410923904F4
:100E40008091390490913A04892B09F0F9C081ED21
:100E500091E00E9455038091390490913A04892BC6
:100E600009F071C185E192E00E9455038CE090E0A9
:100E70000E947D038EE292E00E945503E0913004CF
:100E8000F09131048381948198878F831482138237
:100E900061E081810E94D3016AE070E080E090E02F
:100EA0000E9457020091300410913104C8010E9441
:100EB0009602F801882309F4C6C016821582809331
:100EC000320487E492E00E945503009130041091AF
:100ED0003104C8010E949602F801882309F4B6C0C3
:100EE0001682158290E00E94650380913204882367
:100EF00009F4F4C010925D03E0913004F0913104E4
:100F00008081823009F0A5C088E990E090930101CA
:100F100080930001809169008C7F80936900E89A3A
:100F200061E0809129040E94D301609100007091DA
:100F30000100072E000C880B990B0E9457020E949B
:100F40008A024B015C01F0EE8F0EFEE29F1EA11C97
:100F5000B11C8EE592E00E9455034AE060EE7EE20D
:100F600080E090E00E94F00285E891E00E94550345
:100F70008FE692E00E9455034AE0C501B4010E9449
:100F8000F00285E891E00E94550380E892E00E941B
:100F900055038091320490E00E947D0385E891E042
:100FA0000E94550385E992E00E9455030E948A023F
:100FB0004AE00E94F00282E593E00E945503C12CB2
:100FC000D12C760108EE13E080913204882309F4D5
:100FD00050C00E948A02681579058A059B0508F0B1
:100FE00048C00E948A026C157D058E059F05C0F0E1
:100FF0000E948A026B017C0128EEC20E23E0D21E01
:10100000E11CF11CC80168EE73E00E94C509CB0128
:101010000E947D038AEA92E00E94550308511C4F0A
:1010200080915D03882381F28DEA92E00E9455034E
:1010300010923204C9CF30923A042092390400CF82
:1010400082EE91E006CF3682258239CF3682258224
:1010500049CF833009F064CFE8E9F0E0F093030171
:10106000E093020180916900837F80936900E99A8F
:1010700057CF80EA92E00E9455034AE0C701B601CB
:101080000E94F00285EA92E00E94550360E08091A0
:1010900029040E94D301E0913004F0913104808151
:1010A000823021F4E89890E080E005C0833061F45C
:1010B000E99881E090E0880F991FFC01E050FF4F14
:1010C0008CE990E091838083E0912E04F0912F04CD
:1010D00080913204882389F18EE18083E09130048D
:1010E000F091310460E081810E94D301E0913004ED
:1010F000F09131048F8198859483838381EE92E00F
:101100000E9457038BE193E00E94550381E593E031
:101110000E94550360E67AEE80E090E00E9457025C
:10112000E0E0F0E0EF2B09F4F0CD0E940701882306
:1011300009F4E8CD0E940000E5CDA0912C04B09107
:101140002D048C91CACF8DEE92E00E9455038091C0
:101150000401853031F5E8EDF0E0149117FDD2CFB0
:1011600061E085E00E940102112309F48FC0123072
:1011700009F0A0C08091B100887F86608093B100A3
:1011800085E88093B30040926303509264036092B9
:101190006503709266038091700082608093700096
:1011A000B1CF8F3F09F0AECF85E080930401E8ED29
:1011B000F0E014911F3F09F4A5CF113029F150F050
:1011C000123009F440C017FD9DCF61E085E00E9418
:1011D0000102CDCF14BC15BC84B5826084BD85B539
:1011E000816085BDE9ECF0E08491E82FF0E0EE0F3E
:1011F000FF1FE654FF4F85919491EBEAF0E0849154
:101200008093620310E0ACCF1092800010928100B6
:10121000809181008860809381008091810081604D
:1012200080938100E9ECF0E08491E82FF0E0EE0F8C
:10123000FF1FE654FF4F85919491EBEAF0E0849113
:10124000809361038DCF1092B0001092B100809115
:10125000B00082608093B0008091B1008160809383
:10126000B100E9ECF0E08491E82FF0E0EE0FFF1F11
:10127000E654FF4F859194919093600380935F03B0
:10128000EBEAF0E0849180935E036ACF85B5887FB6
:10129000846085BD85E887BD40926B0350926C03E6
:1012A00060926D0370926E0380916E0082608093F5
:1012B0006E0028CF1130D1F480918100887F816049
:1012C000809381008DE196E8909389008093880057
:1012D00040926703509268036092690370926A03B8
:1012E00080916F00826080936F000CCF123021F0EC
:1012F000111108CF8DE1CFCF8DE143CFFB01DC0190
:1013000005900D920020E1F70895FC010590002062
:10131000E9F7809590958E0F9F1F08952F923F9229
:101320004F925F926F927F928F929F92AF92BF92F5
:10133000CF92DF92EF92FF920F931F93CF93DF93A1
:10134000CDB7DEB7CA1BDB0B0FB6F894DEBF0FBEFE
:10135000CDBF09942A88398848885F846E847D844B
:101360008C849B84AA84B984C884DF80EE80FD804D
:101370000C811B81AA81B981CE0FD11D0FB6F894C3
:10138000DEBF0FBECDBFED01089597FB072E16F40B
:10139000009407D077FD09D00E94FB0907FC05D017
:1013A0003EF4909581959F4F0895709561957F4F7C
:1013B0000895A1E21A2EAA1BBB1BFD010DC0AA1F96
:1013C000BB1FEE1FFF1FA217B307E407F50720F0AE
:1013D000A21BB30BE40BF50B661F771F881F991F29
:1013E0001A9469F760957095809590959B01AC0172
:1013F000BD01CF010895AA1BBB1B51E107C0AA1F65
:10140000BB1FA617B70710F0A61BB70B881F991FA5
:101410005A95A9F780959095BC01CD010895EE0FDE
:10142000FF1F0590F491E02D09940F931F93CF9324
:10143000DF938230910510F482E090E0E09148045F
:10144000F091490430E020E0B0E0A0E0309799F45A
:101450002115310509F44AC0281B390B2430310508
:10146000D8F58A819B816115710589F1FB01938310
:101470008283FE0111C0408151810281138148178E
:101480005907E0F04817590799F4109761F0129640
:101490000C93129713961C933296CF01DF91CF9144
:1014A0001F910F9108950093480410934904F4CFBD
:1014B0002115310551F04217530738F0A901DB011E
:1014C0009A01BD01DF01F801C1CFEF01F9CF90937F
:1014D000490480934804CDCFFE01E20FF31F8193AE
:1014E00091932250310939832883D7CF2091460424
:1014F00030914704232B41F42091070130910801DA
:101500003093470420934604209105013091060151
:101510002115310541F42DB73EB740910901509195
:101520000A01241B350BE0914604F0914704E217B1
:10153000F307A0F42E1B3F0B2817390778F0AC01F6
:101540004E5F5F4F2417350748F04E0F5F1F5093D3
:10155000470440934604819391939FCFF0E0E0E0ED
:101560009CCFCF93DF930097E9F0FC013297138271
:101570001282A0914804B0914904ED0130E020E0CE
:101580001097A1F420813181820F931F209146048E
:10159000309147042817390709F061C0F0934704D8
:1015A000E0934604DF91CF910895EA01CE17DF075B
:1015B000E8F54A815B819E0141155105B1F7E901CA
:1015C000FB83EA8349915991C40FD51FEC17FD079E
:1015D00061F4808191810296840F951FE9019983BE
:1015E0008883828193819B838A83F0E0E0E0129676
:1015F0008D919C9113970097B9F52D913C9111977E
:10160000CD010296820F931F20914604309147042A
:101610002817390739F6309751F51092490410927E
:101620004804B0934704A0934604BCCFD383C2833D
:1016300040815181840F951FC817D90761F44E5F0F
:101640005F4F88819981480F591F518340838A8158
:101650009B81938382832115310509F0B0CFF093EC
:101660004904E09348049ECFFD01DC01C0CF138202
:101670001282D7CFB0E0A0E0E0E4FBE00C94900948
:101680008C01009751F4CB010E94150A8C01C8010E
:10169000CDB7DEB7E0E10C94AC09FC01E60FF71F13
:1016A0009C0122503109E217F30708F49DC0D901CB
:1016B000CD91DC911197C617D70798F0C530D105A9
:1016C00030F3CE0104978617970708F3C61BD70B94
:1016D0002297C193D1936D937C93CF010E94B10A5D
:1016E000D6CF5B01AC1ABD0A4C018C0E9D1EA09199
:1016F0004804B0914904512C412CF12CE12C109755
:1017000031F580914604909147048815990509F0B8
:101710005CC04616570608F058C0809105019091AC
:101720000601009741F48DB79EB740910901509191
:101730000A01841B950BE817F90708F055C0F093D0
:101740004704E0934604F90171836083A0CF8D9133
:101750009C91119712966C90129713967C90139708
:10176000A815B90559F56C0142E0C40ED11CCA1484
:10177000DB0420F1AC014A195B09DA0112961597D6
:1017800080F06282738251834083D9016D937C9390
:10179000E114F10471F0D7011396FC93EE931297C4
:1017A00076CF22968C0F9D1FF90191838083F301E0
:1017B000EFCFF0934904E093480469CF48165906E7
:1017C00008F42C017D01D3019ACFCB010E94150AA8
:1017D0007C01009749F0AE01B8010E94F70BC801E7
:1017E0000E94B10A870153CF10E000E050CFFB0107
:1017F000DC0102C001900D9241505040D8F708958D
:04180000F894FFCF8A
:101804009C009C00FF00004A048000000000003D92
:10181400019D00CA008A01FB00D900ED000D0A00F9
:101824004D6F6E69746F722073657269616C2068A4
:101834006162696C697461646F202D2050726F6AF3
:1018440065746F205661736F2056657264650A0073
:10185400496E696369616E646F206D6F6E69746F40
:1018640072616D656E746F2E2E2E0A00457374615D
:10187400646F20646F20736F6C6F20646F207661D7
:10188400736F3A2000207C2000094E6563657373F2
:10189400C3A172696F2069727269676172206F20D7
:1018A400736F6C6F00090956657269666963616ECE
:1018B400646F207365206F20726563697069656E5B
:1018C40074652074656D2061677561202E2E2E204D
:1018D40000203C3C2054656D2061677561203E3ECC
:1018E4000A00203C3C2053656D2061677561203EF1
:1018F4003E207C204E6563657373C3A172696F20BB
:10190400656E63686572206F2072656369706965CE
:101914006E74650A000A0954656D706F2064652051
:1019240069727269676163616F2064652000207366
:101934006567756E646F73207C2049727269676194
:101944006E646F2E2E2E000A090956616C6F722088
:1019540053656E736F7220426F69613A200054655B
:101964006D706F49727269676163616F3A200054E8
:10197400656D706F4972726967616E646F3A2000B9
:101984005F526563697069656E7465436F6D416725
:1019940075613A20006D696C6C697328293A2000DE
:1019A400203E3E2000203C3C20002C20000909520F
:1019B4006563697069656E74652073656D20C3A184
:1019C4006775612E2E2E20697272696761C3A7C381
:1019D400A36F20696E746572726F6D706964610AB9
:1019E40000207C20497272696761646F000A093EB5
:1019F4003E3E204265657020706F72717565206F80
:101A040020726563697069656E74652065737461BD
:101A14002076617A696F2E2E2E0A000A416775615D
:101A24007264616E646F2031206D696E75746F200D
:101A340070617261206F207072C3B378696D6F201A
:101A44006D6F6E69746F72616D656E746F2E2E2E7C
:041A5400000A0A007A
:00000001FF
